:04000000E6EF00F037
:10000800FACF02F0FBCF03F0E9CF04F0EACF05F016
:10001800E1CF06F0E2CF07F0D9CF08F0DACF09F048
:10002800F3CF0AF0F4CF0BF0F6CF0CF0F7CF0DF0CA
:10003800F8CF0EF0F5CF0FF004009EB09DA043D08E
:100048009E90EC0ECF6E770ECE6E33803A2A010E5C
:100058003A6439D03382000E3A6E382A090E386471
:1000680032D0000E386E3384010E0001E36F3E2A51
:10007800040E3E6404D03386000E3E6E00D0372A4C
:10008800090E376420D03388000E376E392A090EDE
:10009800396404D0000E396E338A00D03B0E3D64BB
:1000A80012D0338C000E3D6E3B2A090E3B640BD0F8
:1000B800338E000E3B6E3C2A050E3C6404D034801F
:1000C800000E3C6E00D09EBA9DAA5BD0ABB202D0A7
:1000D800ABA40AD0AECFDAF0AB9EAB9800F000F03C
:1000E80000F0AB8EAB8848D0140E0001E86F455085
:1000F800010D600EF324D96E000EF420DA6EAECF37
:10010800DFFF4550010D600EF324D96E000EF42078
:10011800DA6EDE28D8A42BD045C0E5F0000E456E77
:100128001ED04550010D600EF324D96E000EF42048
:10013800DA6E4550010D150EF324E16E010EF42020
:10014800E26EDFCFE7FF4550010D600EF324D96E54
:10015800000EF420DA6E000EDF6E452A00D04550FE
:100168000001E55DD8B0DDD7000E456E02D0452A06
:1001780000D0130E456403D0000E456E00D09E9A41
:1001880000D0F0A002D0F09000D00FC0F5FF0EC054
:10019800F8FF0DC0F7FF0CC0F6FF0BC0F4FF0AC054
:1001A800F3FF09C0DAFF08C0D9FF07C0E2FF06C0A5
:1001B800E1FF05C0EAFF04C0E9FF03C0FBFF02C07E
:1001C800FAFF110010EF0DF01E0E01010B6F000E6B
:1001D80001010C6F84EF05F0250E01011219D8B446
:1001E80006D001011251BAEC0DF084EF05F0000EB3
:1001F8000101116F000E106F000E0101146F000E47
:10020800136F0FD00101138708D00101138105D0A6
:100218000101148702D0010113851C4A1D2A01D04F
:1002280014D01CC0F6FF1DC0F7FF0800F550200AC7
:10023800D8B4EBD7030AD8B4EBD70E0AD8B4E2D7B0
:100248001D0AD8B4E8D701D0ECD7010113A703D011
:100258000101139500D01CC0F6FF1DC0F7FF080070
:10026800F55074EC0DF0D8A038D0000E0101116FD4
:10027800000E106F00D010C110F011C111F0000E67
:10028800136E0A0E126E3DEC0DF010C010F111C085
:1002980011F1D00E226EFF0E236E1CC0F6FF1DC09A
:1002A800F7FF0800F550246E256A225024262350B3
:1002B80025222450010110272550010111231C4A31
:1002C8001D2A1CC0F6FF1DC0F7FF0800F55074EC8E
:1002D8000DF0D8A01BD0CFD719D01CC0F6FF1DC079
:1002E800F7FF0800F5502A0AD8A410D00BC1D9FF8F
:1002F8000CC1DAFFDECF10F1DDCF11F1020E0101E2
:100308000B27000E0C231C4A1D2A00D01CC0F6FF28
:100318001DC0F7FF0800F5502E0AD8A43ED00101F1
:10032800148D1C4A1D2A1CC0F6FF1DC0F7FF0800CB
:10033800F5502A0AD8A40FD00BC1D9FF0CC1DAFF97
:10034800DF5001010F6F020E01010B27000E0C2375
:100358001C4A1D2AC1D0000E01010F6F12D01CC00B
:10036800F6FF1DC0F7FF0800F5CF22F001010F517D
:100378000A0DF3502224D00F01010F6F1C4A1D2AC9
:1003880000D01CC0F6FF1DC0F7FF0800F55074EC44
:100398000DF0D8A0A1D0E3D79FD0000E01010F6FB8
:1003A8009BD012000101138DBBD00101138B0101F9
:1003B800138FB6D001010F510101D8B415D00FC168
:1003C80022F0236A22BE230601010951225C0101A1
:1003D8000A512358D8B008D001010F510101096F03
:1003E8000A6B09BF0A0700D0010110510101095D1C
:1003F8000101115101010A59D8B009D0010109516F
:100408000101105F01010A510101115B06D0000EC4
:100418000101116F000E106F00D0010113A706D063
:100428001DD004D0200EBAEC0DF000D00101100749
:10043800D8A0110701011029F5E101011129D8B44B
:100448000DD0F0D70BD001C1D9FF02C1DAFFDF50C0
:10045800BAEC0DF00101014B022B00D00101090794
:10046800D8A00A0701010929EEE101010A29D8A447
:10047800EAD7010113B706D043D304D0200EBAEC53
:100488000DF000D001011007D8A0110701011029B3
:10049800F5E101011129D8B433D3F0D731D30BC119
:1004A800D9FF0CC1DAFFDF500101126F020E010102
:1004B8000B27000E0C2300D0120E0101016F010E54
:1004C8000101026F000E01010A6F010E096F72D758
:1004D800C00E0101131324D01CC0F6FF1DC0F7FF86
:1004E8001C4A1D2A0800F5CF12F101011251000A19
:1004F800D8B41200580AD8B458D73B0AD8B4CFD7C2
:10050800070AD8B40DD00D0AD8B40AD0060AD8B450
:1005180049D71A0AD8B4DCD70D0AD8B448D7CCD7EB
:10052800C00E01011315226E000E01011415236E71
:1005380022502310D8A419D00BC1D9FF0CC1DAFF5F
:10054800DECF0DF1DDCF0EF1020E01010B27000EFB
:100558000C2301010EAF17D0030E01011313010183
:100568000D6D0E1FD8B00E2B0ED00BC1D9FF0CC1CC
:10057800DAFFDECF0DF1DDCF0EF1020E01010B2700
:10058800000E0C2300D001010F510101D8A473D033
:1005980001010D5101010E11D8A46DD001010F2BDD
:1005A8006AD000D0010E0101126F050E0101121967
:1005B800D8B471D001D06FD001011251020DCD0E07
:1005C800F324F66E1B0EF420F76E0900F5500101B6
:1005D8000D5D0900F55001010E59D8A05CD001D07D
:1005E8005AD00101122BE1D756D0010E0101126F2A
:1005F800040E01011219D8B44ED001D04CD001011B
:100608001251020DD70EF324F66E1B0EF420F76E6E
:100618000900F55001010D5D0900F55001010E5961
:10062800D8A039D001D037D00101122BE1D733D06F
:10063800010E0101126F060E01011219D8B42BD058
:1006480001D029D001011251020DC10EF324F66E1A
:100658001B0EF420F76E0900F55001010D5D09002D
:10066800F55001010E59D8A016D001D014D00101BF
:10067800122BE1D710D001011351C00B000AD8B4D6
:1006880091D7400AD8B4D4D7C00AD8B4AED7400A54
:10069800D8B488D700D001011251800A226E010116
:1006A8000F51800A225CD8B003D00FC112F10DD0CF
:1006B80001010F51800A226E01011251800A225C49
:1006C800D8B003D012C10FF100D0010110510101BF
:1006D8001111D8B411D0030E01011315226E000EAA
:1006E80001011415236E22502310D8B405D001013E
:1006F8001007D8A0110700D0010114AD20D0800E3A
:1007080001010FBF7F0E226E0101105101010F5D23
:1007180001011151800A2258D8B00BD001010F51A4
:100728000101105F000E01010FBFFF0E0101115BF7
:1007380006D0000E0101116F000E106F00D0C40E1C
:10074800226E080E236E13C124F014C125F0225026
:10075800241623502516400E24180FE1080E2518DC
:10076800D8A40BD00101105101011111D8B42FD018
:1007780001011007D8A011072AD0C00E226E080E5A
:10078800236E13C124F014C125F0225024162350DF
:100798002516800E24181BE1080E2518D8A417D09A
:1007A800010111BF0ED00101115105E1030E010134
:1007B800105DD8A006D00101FE0E1027FF0E1123F0
:1007C80006D0000E0101116F000E106F00D0800ED0
:1007D800010112BF7F0E226E010110510101125D4D
:1007E80001011151800A2258D8B00BD001011251D1
:1007F8000101105F000E010112BFFF0E0101115B24
:1008080006D0000E0101116F000E106F00D001011B
:1008180013A555D0030E01011315226E000E010118
:100828001415236E22502310D8B404D02D0EBAEC20
:100838000DF030D0010113A104D0200EBAEC0DF058
:1008480029D0C00E226E080E236E13C124F014C1E5
:1008580025F02250241623502516800E24181AE15C
:10086800080E2518D8A416D0300EBAEC0DF00101E8
:1008780013BB05D0000E0101046F780E04D0000EE2
:100888000101046F580E036F00D001010351BAEC47
:100898000DF000D00101105101011111D8B40CD193
:1008A800300EBAEC0DF001011007D8A011070101B4
:1008B800105101011111D8B4FFD0F2D7FDD00101B8
:1008C800105101011111D8B412D0010113B70FD082
:1008D800200EBAEC0DF001011007D8A01107010194
:1008E800105101011111D8B402D0F2D700D0030E73
:1008F80001011315226E000E01011415236E2250FA
:100908002310D8B404D02D0EBAEC0DF007D0010195
:1009180013A104D0200EBAEC0DF000D0C00E226E48
:10092800080E236E13C124F014C125F0225024169A
:1009380023502516400E241808E1080E2518D8A4BF
:1009480004D0300EBAEC0DF0B7D0C00E226E080EEF
:10095800236E13C124F014C125F02250241623500D
:100968002516800E241803E1080E2518D8A4A4D053
:10097800300EBAEC0DF0010113BB05D0000E0101D9
:10098800066F780E04D0000E0101066F580E056F31
:1009980000D001010551BAEC0DF08ED078D000D00E
:1009A80001010F51020DCD0EF324F66E1B0EF4203B
:1009B800F76E0900F5CF12F00A00F5CF13F00DC15C
:1009C80010F00EC111F0FDEC0BF010C017F011C0C3
:1009D80018F0000E1A6E0A0E196E57EC0CF017502C
:1009E80052D00DC110F00EC111F001010F51020DCE
:1009F800D70EF324F66E1B0EF420F76E0900F5CF20
:100A080012F00A00F5CF13F0FDEC0BF010500F0BAD
:100A18000101006F010113BB05D04E0E0101076FE4
:100A28001F0E04D03D0E0101076F1F0E0101086F54
:100A380000D001010051010D07C122F008C123F0C7
:100A4800F3502226F450232222C0F6FF23C0F7FFDA
:100A58000800F5CF12F12BD00DC110F00EC111F026
:100A680001010F51020DC10EF324F66E1B0EF42086
:100A7800F76E0900F5CF12F00A00F5CF13F0FDEC80
:100A88000BF01050070B300F0101126F10D001014D
:100A98001351C00B000AD8B483D7400AD8B4DCD7A6
:100AA800C00AD8B49ED7400AD8B47AD700D001017A
:100AB8001251BAEC0DF000D001010F0701010F2906
:100AC800D8A4E5D7010113A71BD0010111BF18D085
:100AD8000101115106E101011005D8B002D010D072
:100AE80000D0200EBAEC0DF001011007D8A01107B4
:100AF8000101105101011111D8B402D0F2D700D070
:100B08001CC0F6FF1DC0F7FF1C4A1D2A0800F5CFC0
:100B180012F101011251D8B41200F0EF00F01200E6
:100B28001200500ED36E95EC0BF0A4EC0DF0000EF5
:100B38000001BB6F000EBA6F000E2A6E000E296E00
:100B4800000E2C6E000E2B6E000E0001F26F000ED0
:100B5800F16F8B82040E1C6E1F0E1D6EE8EC00F008
:100B6800DD0E1C6E1F0E1D6ED0CF1EF01F6AE8EC46
:100B780000F0BBEC07F0010E496E9480F28CF28E07
:100B8800000E206E280E1F6E030EF4EC0CF0010E02
:100B9800486E00D033A052D0339004004850D8B4E7
:100BA8004DD0000E486E000E2A6E000E296E000E03
:100BB8002C6E000E2B6E010E63EC0DF02DD0010E85
:100BC800D2EC0AF010C084F011C085F00001845105
:100BD800295C000185512A58D8B005D084C029F075
:100BE80085C02AF000D0000ED2EC0AF010C082F0C6
:100BF80011C083F0000182512B5C000183512C58F5
:100C0800D8B005D082C02BF083C02CF000D0010EE4
:100C180063EC0DF0462A00D0270E4664D0D70001B9
:100C2800A6B102D08B9401D08B840001A8B102D068
:100C38008B9801D08B88000E466E00D033A23ED030
:100C480033924750D8B40CD0060E406002D0402AE8
:100C580007D0000E476E000E406E010E486E00D0A1
:100C680081B019D00001BA4BBB2B0001AE51000175
:100C7800BA5D0001AF510001BB59D8A01FD03F5049
:100C8800D8A402D0338600D0010E3F6EAEC0BAF0B1
:100C9800AFC0BBF013D00001BA510001BB11D8B4EA
:100CA8000DD00001BA07D8A0BB070001BA51000156
:100CB800BB11D8A403D0000E3F6E00D033B43394D8
:100CC80033A64FD033968BA403D0286A282A01D0A4
:100CD800286A28500001A66FA76B8BA803D0286A42
:100CE800282A01D0286A28500001A86FA96B8B9484
:100CF8008B98010E476E87EC0AF037EC0AF095ECFA
:100D08000DF015D0F3EC06F029D018EC0BF026D036
:100D1800E0EC09F023D059EC0BF020D086EC09F078
:100D28001DD069EC08F01AD0FDEC08F017D0495036
:100D3800010AD8B4E7D7030AD8B4E7D7010AD8B468
:100D4800E7D7070AD8B4E7D7010AD8B4E7D7030A20
:100D5800D8B4E7D7010AD8B4E7D700D02BEC0CF009
:100D680000D033B8339833BA339A33BC339C33BE8C
:100D7800339E34A00FD73490120E7DEC0CF012C0C5
:100D880031F013C032F031C017F032C018F0CEC0C5
:100D980019F0CFC01AF057EC0CF017501810D8A45F
:100DA80003D0070E496E00D0060E4918D8B4F2D603
:100DB8000001D051315C0001D1513258D8A003D084
:100DC800060E496EE7D6314A322A31C014F032C0D5
:100DD80015F0120EBAEC0CF0DDD6E6EF00F03F0E7F
:100DE8001C6E1E0E1D6EE8EC00F00F01429F000EF7
:100DF8000001876F9C0E866F000E206E280E1F6EF6
:100E0800060EF4EC0CF004D0FF0E63EC0DF000D0ED
:100E180081A0FAD7FF0E63EC0DF008D0000E206E0B
:100E2800280E1F6E010EF4EC0CF000D081A0F6D74E
:100E3800020E926E010E936E000E946E000E896E75
:100E4800000E8A6E000E8B6E88D0030089AC02D02B
:100E5800899C00D000018607D8A087070001865129
:100E680000018711D8A457D00F014251CF0B200998
:100E7800426F0F01428F898C000E0001876F9C0E14
:100E8800866F010ED2EC0AF010C029F011C02AF0CA
:100E980029502D5C2A502E58D8B037D01E0E63EC3E
:100EA8000DF0010ED2EC0AF010C029F011C02AF0A2
:100EB80029502D5C2A502E58D8B027D01E0E63EC2E
:100EC8000DF0010ED2EC0AF010C029F011C02AF082
:100ED80029502D5C2A502E58D8B017D095EC0BF01D
:100EE800A4EC0DF0A00E1C6E1F0E1D6E29C01EF086
:100EF8002AC01FF0E8EC00F0AE0E1C6E1C0E1D6E32
:100F0800E8EC00F0020E496E00D04904D8A403D0E2
:100F18000F01429F00D081B020D00001924B932B4B
:100F28000001ED510001925D0001EE51000193595D
:100F3800D8A019D095EC0BF0A4EC0DF0A40E1C6E03
:100F48001D0E1D6EE8EC00F0C60E1C6E1C0E1D6E0C
:100F5800E8EC00F0020E496E06D0000E0001936F17
:100F6800000E926F00D04904D8B46FD71200080E53
:100F78007DEC0CF012C09EF013C09FF00A0E7DECC1
:100F88000CF012C0AEF013C0AFF00C0E7DEC0CF0FC
:100F980012C0ACF013C0ADF0100E7DEC0CF012C016
:100FA800D0F013C0D1F0000E7DEC0CF012C02DF083
:100FB80013C02EF0020E7DEC0CF012C096F013C098
:100FC80097F01A0E7DEC0CF012C09AF013C09BF04B
:100FD800180E7DEC0CF012C09CF013C09DF01C0E96
:100FE8007DEC0CF012C08CF013C08DF01E0E7DEC61
:100FF8000CF012C088F013C089F0220E7DEC0CF0C2
:1010080012C02FF013C030F0240E7DEC0CF012C08B
:10101800B0F013C0B1F0260E7DEC0CF012C0A0F0B9
:1010280013C0A1F0140E7DEC0CF012C0CEF013C06A
:10103800CFF0000E0001B36F0F0EB26F2FC010F08B
:1010480030C011F0B2C012F0B3C013F03DEC0DF097
:1010580010C0CAF011C0CBF02FC010F030C011F092
:101068008CC012F08DC013F03DEC0DF010C0C2F032
:1010780011C0C3F02FC010F030C011F088C012F0BA
:1010880089C013F03DEC0DF010C0C0F011C0C1F0E4
:101098002FC010F030C011F09AC012F09BC013F0AE
:1010A8003DEC0DF010C0C4F011C0C5F02FC010F019
:1010B80030C011F09CC012F09DC013F03DEC0DF053
:1010C80010C0C6F011C0C7F01200060E4218D8B4FE
:1010D80020D06B0E1C6E1D0E1D6EE8EC00F0030E8A
:1010E8004218D8A40FD0B00E1C6E1F0E1D6EE8EC6F
:1010F80000F0000E196E180E186E9DEC0CF0030E21
:10110800496E1200060E426E000E366E000E356EE7
:1011180012002D50295C2E502A58D8B00ED0000E3F
:10112800196E180E186E9DEC0CF0000E0001D86FA9
:10113800010E0001E76F030E47D02B500001A25D9E
:101148002C500001A359D8B00FD0060E496E354A6D
:10115800362A0F0E1C6E1E0E1D6E35C01EF036C0D0
:101168001FF0E8EC00F032D00001A051355C00011E
:10117800A1513658D8A018D0410E1C6E1C0E1D6EF9
:10118800E8EC00F0020E496E000E366E000E356E69
:10119800000E326E000E316E31C014F032C015F000
:1011A800120EBAEC0CF012D0F10E1C6E1C0E1D6E55
:1011B800E8EC00F0000E366E000E356E000E0001F1
:1011C800F06F010EEF6F050E496E00D0060E49183C
:1011D800D8A41200000E0001E46F000E0001EB6FAE
:1011E800000E446E000E0001DE6F010E436E120009
:1011F8001200070E4218D8B420D0300E1C6E1D0EF7
:101208001D6EE8EC00F0030E4218D8A40FD0980E1B
:101218001C6E1E0E1D6EE8EC00F0000E196E180E06
:10122800186E9DEC0CF0030E496E1200070E426E0C
:10123800000E366E000E356E12002D50295C2E50B1
:101248002A58D8B00ED0000E196E180E186E9DECE4
:101258000CF0000E0001D86F010E0001E76F030EBD
:101268003CD00001B051355C0001B1513658D8A0CE
:101278000DD0190E1C6E1C0E1D6EE8EC00F0020E4F
:10128800496E000E366E000E356E29D02B500001C7
:10129800A25D2C500001A359D8B00FD0070E496E9B
:1012A800354A362A4E0E1C6E1D0E1D6E35C01EF0B8
:1012B80036C01FF0E8EC00F012D08B0E1C6E1C0E2E
:1012C8001D6EE8EC00F0000E366E000E356E000E56
:1012D8000001F06F010EEF6F050E496E00D0070E8A
:1012E8004918D8A41200000E0001E46F000E000196
:1012F800EB6F000E446E000E0001DE6F010E436EB0
:1013080012001200000E446E000E0001DE6F000E87
:10131800436E050E4218D8B409D0800E1C6E1F0EFD
:101328001D6EE8EC00F0050E426E12006C0E1C6E8D
:101338001E0E1D6EE8EC00F0160E7DEC0CF012C0CF
:10134800AAF013C0ABF00001DD51266E276A000138
:10135800AA51265C0001AB512758D8A00BD0000E2B
:101368000001DD6F010E1C6E020E1D6E010E85EC74
:101378000DF003D00001DD2B00D0000E146E320EEC
:10138800136E020E28EC0DF00001CA512B5C00010F
:10139800CB512C58D8A01200020E496EF60E1C6EC6
:1013A8001D0E1D6EE8EC00F0AE0E1C6E1E0E1D6EBE
:1013B800E8EC00F012001200010E446E000E00016D
:1013C800DE6F010E436E000E0001E46F000E000197
:1013D800EB6F030E4218D8B409D0BF0E1C6E1F0E57
:1013E8001D6EE8EC00F0030E426E1200DA0E1C6E61
:1013F8001E0E1D6EE8EC00F02A5004E13D0E295C3B
:10140800D8A004D03C0E295E000E2A5A190E0001FD
:101418009625266E000E00019721276E2650295C1E
:1014280027502A58D8A00CD0000E436E900E1C6E80
:101438001F0E1D6EE8EC00F0020E496E338600D0D8
:101448000001C4512B5C0001C5512C58D8B01200C2
:10145800010E496E660E1C6E1C0E1D6EE8EC00F047
:10146800338612001200700E1C6E1F0E1D6EE8EC03
:1014780000F03AD0560E1C6E1E0E1D6EE8EC00F001
:10148800010E0001E46F010E0001EB6F1200F70E70
:101498001C6E1F0E1D6EE8EC00F0000E0001E46FDC
:1014A800000E0001EB6F1200560E1C6E1E0E1D6E14
:1014B800E8EC00F0010E0001E46F010E0001EB6F93
:1014C800010E0001DE6F1200000E0001E46F010E34
:1014D8000001EB6FEA0E1C6E1F0E1D6EE8EC00F0AB
:1014E800010E0001DE6F12004150000AD8B4C2D7C5
:1014F800010AD8B4D9D7030AD8B4E6D7010AD8A4C0
:101508001200C5D712002A0E1C6E1F0E1D6E2BC0AE
:101518001EF02CC01FF0E8EC00F00001C0512B5C5D
:101528000001C1512C58D8A00BD0DB0E1C6E1D0E2B
:101538001D6EE8EC00F0030E416E050E496E1200B8
:101548000001C2512B5C0001C3512C58D8A009D00E
:10155800020E416EC00E1C6E1D0E1D6EE8EC00F0F2
:1015680012000001CA512B5C0001CB512C58D8A0A5
:1015780009D0010E416E880E1C6E1D0E1D6EE8EC22
:1015880000F01200D00E1C6E1C0E1D6EE8EC00F070
:10159800000E416E050E496E12001200146E14C042
:1015A80012F0D8901236D89012361228C26E000E59
:1015B800C16EC150F30B0809C16EAF0EC06E0A0EA2
:1015C800156E00D0152EFED700D0000E196E000E35
:1015D800186E000E176E030E176401D011D00A0E94
:1015E800166E00D0162EFED7C28200D0C2B2FED729
:1015F800C4501926C3501826000E1922172AEBD7F3
:1016080018C012F019C013F0D89013321232D890C3
:101618001332123212C018F013C019F018C010F0AB
:1016280019C011F012001200000E446E010E0001E4
:10163800DE6F020E4218D8B409D0270E1C6E1E0E9B
:101648001D6EE8EC00F0020E426E1200820E1C6E57
:101658001E0E1D6EE8EC00F0190E2D24266E000EED
:101668002E20276E2650295C27502A58D8B00DD036
:10167800110E1C6E1D0E1D6EE6C01EF01F6AE8ECF2
:1016880000F0030E496E338609D0000E436E170E24
:101698001C6E1F0E1D6EE8EC00F000D03F04D8A4AD
:1016A8001200040E496E12001200010E436E040E61
:1016B8004218D8B40ED0C40E1C6E1E0E1D6EE8EC77
:1016C80000F0040E426E010E446E000E0001DE6F43
:1016D800120089AE02D0010E01D0000E0008266E5D
:1016E8002628446E44500008266E26280001DE6F26
:1016F800EF0E1C6E1E0E1D6EE8EC00F03F50D8A4D5
:101708001200020E496ECE0E1C6E1F0E1D6EE8EC06
:1017180000F05F0E1C6E1F0E1D6EE8EC00F012004C
:101728001200000E896E000E8A6E020E8B6E0B0E72
:10173800926EB70E936E810E946E0B0E0F01386F7A
:10174800000E0F01396F000E0F013A6F010E616E26
:10175800F19E010ECD6E9E909D800F014251CF0BE0
:101768002009426F0F01428F000E3A6E3390339476
:101778003398000E386E000E376E000E0001B96FF8
:10178800000EB86F000E0001EE6F040EED6F120030
:10179800166E16C010F0116A020E136E9A0E126EB3
:1017A8003DEC0DF010C01AF011C01BF0000EF2BE97
:1017B800010E176EF29E13D01A06D8A01B0604005D
:1017C8008988899A460E186E00D0182EFED78998F7
:1017D800898A460E196E00D0192EFED700D01A50ED
:1017E8001B10D8A4E9D717B002D0F29E01D0F28E10
:1017F8001200000E166E000E156E12501310D8B49B
:1018080021D0010E146E05D0D89012361336142A42
:1018180000D013BE02D0F8D700D0D89015361636AF
:101828001250105C13501158D8A006D01250105EF8
:101838001350115A158000D0D89013321232142E3A
:10184800ECD700D015C010F016C011F0120000013E
:10185800E4B102D08B9401D08B840001EBB102D0AB
:101868008B9801D08B8844B002D0899E01D0898E94
:101878000001DEB102D0899C01D0898C43B002D02E
:101888008A9601D08A8643500001E019D8B408D05E
:10189800010E1C6E020E1D6E010E85EC0DF000D0BF
:1018A80043C0E0F0120019501A10D8B41DD0010E30
:1018B8001B6E05D0D89019361A361B2A00D01ABECE
:1018C80002D0F8D700D01950175C1A501858D8A071
:1018D80005D01950175E1A50185A00D0D8901A32ED
:1018E80019321B2EF0D700D017C017F018C018F007
:1018F8001200176E17C010F0116AB0EC0DF0146EDC
:101908001450156E166A1550166E156A010E1724B6
:10191800106E116A000E1122B0EC0DF0146E145006
:101928001526000E162215C012F016C013F012006C
:101938001200120E7DEC0CF012C01CF013C01DF04A
:1019480018C01AF019C01BF01A1E1B1E1A4A1B2AAF
:101958001C501A241C6E1D501B201D6E1CC014F038
:101968001DC015F0120EBAEC0CF01200166EC1EC88
:101978000DF016C010F0116A1550126ED7EC0CF06D
:101988000A0E63EC0DF0C1EC0DF0010E1624106E7A
:10199800116A000E112214C012F0D7EC0CF00A0ED6
:1019A80063EC0DF01200000E136E10C0A9FF12C0F8
:1019B800A8FFA69EA69CA684000EF2BE010E136E7A
:1019C800F29E550EA76EAA0EA76EA68200D0A6B2EA
:1019D800FED713B002D0F29E01D0F28EA694120068
:1019E800216E000E226E13D0898E898C010E1C6E1A
:1019F800020E1D6E010E85EC0DF01F5063EC0DF00C
:101A0800899C899E1F5063EC0DF0222A00D021503A
:101A1800225CD8A0E9D7120001EE15F0140EEE6A88
:101A2800E806FDE100EE60F08D0EEE6AE806FDE1E5
:101A38004A6A00EE29F0210EEE6AE806FDE1000E82
:101A4800F86E000195EF05F0156E000E166E0AD0BF
:101A5800898E135063EC0DF0899E135063EC0DF0E2
:101A6800162A00D01550165CD8A0F2D700F000F066
:101A7800120010501202F3CF14F0F4CF15F01050EA
:101A88001302F350152611501202F350152614C0F4
:101A980010F015C011F012001200106E8998899A82
:101AA8000AD004000001E351D8B405D0000E0001AB
:101AB800E36F100600D01050D8A4F3D71200106EB0
:101AC8000400040E116EFA0E126E00D0122EFED70C
:101AD800112EF9D700D0102EF3D700F000F0120025
:101AE800126E000E116E3A0E126006D02F0E12649E
:101AF80003D0010E116E00D011C010F0103012008A
:101B080012001E6E08D01C50CCEC0BF01D5051EC8E
:101B18000DF01E0600D01E50D8A4F5D700F000F036
:101B28001200DF0E1C6E1B0E1D6E29C01EF02AC08F
:101B38001FF02DC020F02EC021F0E8EC00F01200BC
:101B4800948E948C240EAC6E900EAB6E080EAF6E15
:101B5800B8869E9A9D8A120010C0A9FFA69CA69ED0
:101B6800A68000F000F0A85012001200106E00D0FD
:101B7800ACA2FED710C0ADFF120000D0A6B2FED7AF
:021B8800120049
:101BC0000001000800400000020010008001000A2F
:101BD000006400E803102701001000000100100A53
:101BE0000D20475249445F566F6C746167655F41D1
:101BF00044435F76616C203D2564202C67726964E4
:101C00005F706F7765725F6C6F775F766F6C746112
:101C10006765203D20256420000A0D205359535448
:101C2000454D205445535420484153204245454E8C
:101C30002053554343534546554C4C21210A0D2012
:101C4000000A0D53595354454D20544553542048D0
:101C50004153204245454E20535543435345465535
:101C60004C4C0A0D20000A0D42415454205553207B
:101C700056455259204C4F5720534F20474F494EFD
:101C80004720544F20534C454550000A0D205359CE
:101C90005354454D20544553542048415320424508
:101CA000454E204641494C4421200A0D2000204742
:101CB00052494420504F57455220444554454354BF
:101CC000454420736F2057414B494E4720555000E3
:101CD0000A0D41545421212120626174745F737490
:101CE0006174203D2053484F525445442021212106
:101CF000000A0D53595354454D2054455354204820
:101D00004153204245454E204641494C440A0D204E
:101D1000000A0D20475249445F504F574552204614
:101D200041494C204445544543544544200A0D0044
:101D30000A0D454E544552494E472053484F525480
:101D40002054455354204D4F44450A0D20000A0DA0
:101D5000544553545F434F554E54204953202564F6
:101D6000207365636F6E64730A0D000A0D454E544F
:101D70004552494E47204C4F4E472054455354201E
:101D80004D4F44450A0D20000A0D626174745F7363
:101D9000746174203D204E4545445F43484152479D
:101DA000494E47000A0D544553545F5357207072F3
:101DB00065737320646574656374656420736F0074
:101DC0000A0D626174745F73746174203D2046551E
:101DD0004C4C5F43484152474544000A0D626174D0
:101DE000745F73746174203D20444953434F4E4ED9
:101DF0004543544544000A0D2042415420564F4C5F
:101E00005441474520495320474F4F442120000A61
:101E10000D54455354204953202564207365636F46
:101E20006E64730A0D20000A0D204D4F56494E472F
:101E300020544F2053545F4259204D4F4445000ACF
:101E40000D0A0D0A0D2073775F73746174203D20B5
:101E5000534C454550002D204E4F524D414C2026AD
:101E600020545249434B4C450A0D20000A0D0A0DDF
:101E70002073775F73746174203D204552524F5236
:101E80003B000A0D0A0D2073775F73746174203D67
:101E90002053545F42593B000A0D5745204152459B
:101EA00020494E20574F524B204D4F4445000A0DBC
:101EB0002045584954494E47204552524F52204DD3
:101EC0004F4445000A0D4D4F56494E4720544F2070
:101ED00054455354204D4F4445000A0D0A0D2073BC
:101EE000775F73746174203D20574F524B3B000A5B
:101EF0000D0A0D2073775F73746174203D20544583
:101F000053543B000A0D7E7E5379732053746172E3
:101F10007465647E7E7E000A0D475249445F504FCF
:101F2000574552204953204F4B000A0D0A0D2056A9
:101F300062617420414443203D20256400303132E9
:101F40003334353637383941424344454600303121
:101F50003233343536373839616263646566000A76
:101F60000D676F696E6720746F2053545F4259008C
:101F70000A0D204348415247494E4720495320000B
:101F80000A0D544F204552524F52204D4F444500A8
:101F90000A0D504F574552204953204241434B00B0
:101FA0000A0D2056696E20414443203D20256400DF
:101FB0000A0D544553542044454C41594544000AA8
:101FC0000D544F20574F524B204D4F4445000A0DA2
:101FD0005445535420495320444F4E45000A0D5256
:101FE000434F4E203D20257820002D205452494358
:101FF0004B4C450A0D20004F4646200A0D2000009C
:020000040020DA
:08000000FFFFFFFFFFFFFFFF00
:020000040030CA
:0E000000FF381C0FFFBD80FF03C003E003406C
:0200000400F00A
:1000000000DC00EEFFFFFFFF01A400030096FFFFEE
:100010002238000000A8000A0078007200AD00CB72
:10002000FFFF000300781518FFFFFFFFFFFFFFFF32
:10003000FFFFFFFFFFFFFFFFFFFFFFFFFFFFFFFFD0
:10004000FFFFFFFFFFFFFFFF00DC00EEFFFFFFFFF2
:1000500001A400030096FFFF2238000000A8000A58
:100060000078007200AD00CBFFFF00030078151888
:10007000FFFFFFFFFFFFFFFFFFFFFFFFFFFFFFFF90
:10008000FFFFFFFFFFFFFFFFFFFFFFFFFFFFFFFF80
:00000001FF
